{
  "_format": "hh-sol-artifact-1",
  "contractName": "WakandaToken",
  "sourceName": "contracts/WakandaToken.sol",
  "abi": [
    {
      "inputs": [],
      "stateMutability": "nonpayable",
      "type": "constructor"
    },
    {
      "anonymous": false,
      "inputs": [
        {
          "indexed": true,
          "internalType": "address",
          "name": "owner",
          "type": "address"
        },
        {
          "indexed": true,
          "internalType": "address",
          "name": "spender",
          "type": "address"
        },
        {
          "indexed": false,
          "internalType": "uint256",
          "name": "value",
          "type": "uint256"
        }
      ],
      "name": "Approval",
      "type": "event"
    },
    {
      "anonymous": false,
      "inputs": [
        {
          "indexed": false,
          "internalType": "address",
          "name": "account",
          "type": "address"
        }
      ],
      "name": "BatchTransferDelegated",
      "type": "event"
    },
    {
      "anonymous": false,
      "inputs": [
        {
          "indexed": true,
          "internalType": "bytes32",
          "name": "role",
          "type": "bytes32"
        },
        {
          "indexed": true,
          "internalType": "bytes32",
          "name": "previousAdminRole",
          "type": "bytes32"
        },
        {
          "indexed": true,
          "internalType": "bytes32",
          "name": "newAdminRole",
          "type": "bytes32"
        }
      ],
      "name": "RoleAdminChanged",
      "type": "event"
    },
    {
      "anonymous": false,
      "inputs": [
        {
          "indexed": true,
          "internalType": "bytes32",
          "name": "role",
          "type": "bytes32"
        },
        {
          "indexed": true,
          "internalType": "address",
          "name": "account",
          "type": "address"
        },
        {
          "indexed": true,
          "internalType": "address",
          "name": "sender",
          "type": "address"
        }
      ],
      "name": "RoleGranted",
      "type": "event"
    },
    {
      "anonymous": false,
      "inputs": [
        {
          "indexed": true,
          "internalType": "bytes32",
          "name": "role",
          "type": "bytes32"
        },
        {
          "indexed": true,
          "internalType": "address",
          "name": "account",
          "type": "address"
        },
        {
          "indexed": true,
          "internalType": "address",
          "name": "sender",
          "type": "address"
        }
      ],
      "name": "RoleRevoked",
      "type": "event"
    },
    {
      "anonymous": false,
      "inputs": [
        {
          "indexed": true,
          "internalType": "address",
          "name": "from",
          "type": "address"
        },
        {
          "indexed": true,
          "internalType": "address",
          "name": "to",
          "type": "address"
        },
        {
          "indexed": false,
          "internalType": "uint256",
          "name": "value",
          "type": "uint256"
        }
      ],
      "name": "Transfer",
      "type": "event"
    },
    {
      "inputs": [],
      "name": "BATCH_TRANSFER_ROLE",
      "outputs": [
        {
          "internalType": "bytes32",
          "name": "",
          "type": "bytes32"
        }
      ],
      "stateMutability": "view",
      "type": "function"
    },
    {
      "inputs": [],
      "name": "DEFAULT_ADMIN_ROLE",
      "outputs": [
        {
          "internalType": "bytes32",
          "name": "",
          "type": "bytes32"
        }
      ],
      "stateMutability": "view",
      "type": "function"
    },
    {
      "inputs": [],
      "name": "MINTER_ROLE",
      "outputs": [
        {
          "internalType": "bytes32",
          "name": "",
          "type": "bytes32"
        }
      ],
      "stateMutability": "view",
      "type": "function"
    },
    {
      "inputs": [
        {
          "internalType": "address",
          "name": "owner",
          "type": "address"
        },
        {
          "internalType": "address",
          "name": "spender",
          "type": "address"
        }
      ],
      "name": "allowance",
      "outputs": [
        {
          "internalType": "uint256",
          "name": "",
          "type": "uint256"
        }
      ],
      "stateMutability": "view",
      "type": "function"
    },
    {
      "inputs": [
        {
          "internalType": "address",
          "name": "spender",
          "type": "address"
        },
        {
          "internalType": "uint256",
          "name": "amount",
          "type": "uint256"
        }
      ],
      "name": "approve",
      "outputs": [
        {
          "internalType": "bool",
          "name": "",
          "type": "bool"
        }
      ],
      "stateMutability": "nonpayable",
      "type": "function"
    },
    {
      "inputs": [
        {
          "internalType": "address",
          "name": "account",
          "type": "address"
        }
      ],
      "name": "balanceOf",
      "outputs": [
        {
          "internalType": "uint256",
          "name": "",
          "type": "uint256"
        }
      ],
      "stateMutability": "view",
      "type": "function"
    },
    {
      "inputs": [
        {
          "internalType": "address[]",
          "name": "recipients",
          "type": "address[]"
        },
        {
          "internalType": "uint256[]",
          "name": "amounts",
          "type": "uint256[]"
        }
      ],
      "name": "batchTransfer",
      "outputs": [
        {
          "internalType": "bool",
          "name": "",
          "type": "bool"
        }
      ],
      "stateMutability": "nonpayable",
      "type": "function"
    },
    {
      "inputs": [
        {
          "internalType": "uint256",
          "name": "amount",
          "type": "uint256"
        }
      ],
      "name": "burn",
      "outputs": [],
      "stateMutability": "nonpayable",
      "type": "function"
    },
    {
      "inputs": [
        {
          "internalType": "address",
          "name": "account",
          "type": "address"
        },
        {
          "internalType": "uint256",
          "name": "amount",
          "type": "uint256"
        }
      ],
      "name": "burnFrom",
      "outputs": [],
      "stateMutability": "nonpayable",
      "type": "function"
    },
    {
      "inputs": [],
      "name": "decimals",
      "outputs": [
        {
          "internalType": "uint8",
          "name": "",
          "type": "uint8"
        }
      ],
      "stateMutability": "view",
      "type": "function"
    },
    {
      "inputs": [
        {
          "internalType": "address",
          "name": "spender",
          "type": "address"
        },
        {
          "internalType": "uint256",
          "name": "subtractedValue",
          "type": "uint256"
        }
      ],
      "name": "decreaseAllowance",
      "outputs": [
        {
          "internalType": "bool",
          "name": "",
          "type": "bool"
        }
      ],
      "stateMutability": "nonpayable",
      "type": "function"
    },
    {
      "inputs": [
        {
          "internalType": "address",
          "name": "account",
          "type": "address"
        }
      ],
      "name": "delegateBatchTransfer",
      "outputs": [
        {
          "internalType": "bool",
          "name": "",
          "type": "bool"
        }
      ],
      "stateMutability": "nonpayable",
      "type": "function"
    },
    {
      "inputs": [
        {
          "internalType": "bytes32",
          "name": "role",
          "type": "bytes32"
        }
      ],
      "name": "getRoleAdmin",
      "outputs": [
        {
          "internalType": "bytes32",
          "name": "",
          "type": "bytes32"
        }
      ],
      "stateMutability": "view",
      "type": "function"
    },
    {
      "inputs": [
        {
          "internalType": "bytes32",
          "name": "role",
          "type": "bytes32"
        },
        {
          "internalType": "address",
          "name": "account",
          "type": "address"
        }
      ],
      "name": "grantRole",
      "outputs": [],
      "stateMutability": "nonpayable",
      "type": "function"
    },
    {
      "inputs": [
        {
          "internalType": "bytes32",
          "name": "role",
          "type": "bytes32"
        },
        {
          "internalType": "address",
          "name": "account",
          "type": "address"
        }
      ],
      "name": "hasRole",
      "outputs": [
        {
          "internalType": "bool",
          "name": "",
          "type": "bool"
        }
      ],
      "stateMutability": "view",
      "type": "function"
    },
    {
      "inputs": [
        {
          "internalType": "address",
          "name": "spender",
          "type": "address"
        },
        {
          "internalType": "uint256",
          "name": "addedValue",
          "type": "uint256"
        }
      ],
      "name": "increaseAllowance",
      "outputs": [
        {
          "internalType": "bool",
          "name": "",
          "type": "bool"
        }
      ],
      "stateMutability": "nonpayable",
      "type": "function"
    },
    {
      "inputs": [
        {
          "internalType": "address",
          "name": "to",
          "type": "address"
        },
        {
          "internalType": "uint256",
          "name": "amount",
          "type": "uint256"
        }
      ],
      "name": "mint",
      "outputs": [],
      "stateMutability": "nonpayable",
      "type": "function"
    },
    {
      "inputs": [],
      "name": "name",
      "outputs": [
        {
          "internalType": "string",
          "name": "",
          "type": "string"
        }
      ],
      "stateMutability": "view",
      "type": "function"
    },
    {
      "inputs": [
        {
          "internalType": "bytes32",
          "name": "role",
          "type": "bytes32"
        },
        {
          "internalType": "address",
          "name": "account",
          "type": "address"
        }
      ],
      "name": "renounceRole",
      "outputs": [],
      "stateMutability": "nonpayable",
      "type": "function"
    },
    {
      "inputs": [
        {
          "internalType": "bytes32",
          "name": "role",
          "type": "bytes32"
        },
        {
          "internalType": "address",
          "name": "account",
          "type": "address"
        }
      ],
      "name": "revokeRole",
      "outputs": [],
      "stateMutability": "nonpayable",
      "type": "function"
    },
    {
      "inputs": [
        {
          "internalType": "bytes4",
          "name": "interfaceId",
          "type": "bytes4"
        }
      ],
      "name": "supportsInterface",
      "outputs": [
        {
          "internalType": "bool",
          "name": "",
          "type": "bool"
        }
      ],
      "stateMutability": "view",
      "type": "function"
    },
    {
      "inputs": [],
      "name": "symbol",
      "outputs": [
        {
          "internalType": "string",
          "name": "",
          "type": "string"
        }
      ],
      "stateMutability": "view",
      "type": "function"
    },
    {
      "inputs": [],
      "name": "totalSupply",
      "outputs": [
        {
          "internalType": "uint256",
          "name": "",
          "type": "uint256"
        }
      ],
      "stateMutability": "view",
      "type": "function"
    },
    {
      "inputs": [
        {
          "internalType": "address",
          "name": "to",
          "type": "address"
        },
        {
          "internalType": "uint256",
          "name": "amount",
          "type": "uint256"
        }
      ],
      "name": "transfer",
      "outputs": [
        {
          "internalType": "bool",
          "name": "",
          "type": "bool"
        }
      ],
      "stateMutability": "nonpayable",
      "type": "function"
    },
    {
      "inputs": [
        {
          "internalType": "address",
          "name": "from",
          "type": "address"
        },
        {
          "internalType": "address",
          "name": "to",
          "type": "address"
        },
        {
          "internalType": "uint256",
          "name": "amount",
          "type": "uint256"
        }
      ],
      "name": "transferFrom",
      "outputs": [
        {
          "internalType": "bool",
          "name": "",
          "type": "bool"
        }
      ],
      "stateMutability": "nonpayable",
      "type": "function"
    }
  ],
  "bytecode": "0x60806040523480156200001157600080fd5b506040518060400160405280600d81526020017f57616b616e646120546f6b656e000000000000000000000000000000000000008152506040518060400160405280600381526020017f574154000000000000000000000000000000000000000000000000000000000081525081600390805190602001906200009692919062000460565b508060049080519060200190620000af92919062000460565b505050620000c76000801b336200016f60201b60201c565b620000f97f9f2df0fed2c77648de5860a4cc508cd0818c85b8b8a1ab4ceeef8d981c8956a6336200016f60201b60201c565b6200012b7f0eb740c189390f0545e852790c9a6f68244a8177258d7c99bb56775dfa161dcd336200016f60201b60201c565b6200016933620001406200026160201b60201c565b600a6200014e919062000650565b6103e86200015d91906200078d565b6200026a60201b60201c565b620008cf565b620001818282620003e360201b60201c565b6200025d5760016005600084815260200190815260200160002060000160008373ffffffffffffffffffffffffffffffffffffffff1673ffffffffffffffffffffffffffffffffffffffff16815260200190815260200160002060006101000a81548160ff021916908315150217905550620002026200044e60201b60201c565b73ffffffffffffffffffffffffffffffffffffffff168173ffffffffffffffffffffffffffffffffffffffff16837f2f8788117e7eff1d82e926ec794901d17c78024a50270940304540a733656f0d60405160405180910390a45b5050565b60006012905090565b600073ffffffffffffffffffffffffffffffffffffffff168273ffffffffffffffffffffffffffffffffffffffff161415620002dd576040517f08c379a0000000000000000000000000000000000000000000000000000000008152600401620002d49062000548565b60405180910390fd5b620002f1600083836200045660201b60201c565b806002600082825462000305919062000598565b92505081905550806000808473ffffffffffffffffffffffffffffffffffffffff1673ffffffffffffffffffffffffffffffffffffffff16815260200190815260200160002060008282546200035c919062000598565b925050819055508173ffffffffffffffffffffffffffffffffffffffff16600073ffffffffffffffffffffffffffffffffffffffff167fddf252ad1be2c89b69c2b068fc378daa952ba7f163c4a11628f55a4df523b3ef83604051620003c391906200056a565b60405180910390a3620003df600083836200045b60201b60201c565b5050565b60006005600084815260200190815260200160002060000160008373ffffffffffffffffffffffffffffffffffffffff1673ffffffffffffffffffffffffffffffffffffffff16815260200190815260200160002060009054906101000a900460ff16905092915050565b600033905090565b505050565b505050565b8280546200046e9062000805565b90600052602060002090601f016020900481019282620004925760008555620004de565b82601f10620004ad57805160ff1916838001178555620004de565b82800160010185558215620004de579182015b82811115620004dd578251825591602001919060010190620004c0565b5b509050620004ed9190620004f1565b5090565b5b808211156200050c576000816000905550600101620004f2565b5090565b60006200051f601f8362000587565b91506200052c82620008a6565b602082019050919050565b6200054281620007ee565b82525050565b60006020820190508181036000830152620005638162000510565b9050919050565b600060208201905062000581600083018462000537565b92915050565b600082825260208201905092915050565b6000620005a582620007ee565b9150620005b283620007ee565b9250827fffffffffffffffffffffffffffffffffffffffffffffffffffffffffffffffff03821115620005ea57620005e96200083b565b5b828201905092915050565b6000808291508390505b600185111562000647578086048111156200061f576200061e6200083b565b5b60018516156200062f5780820291505b80810290506200063f8562000899565b9450620005ff565b94509492505050565b60006200065d82620007ee565b91506200066a83620007f8565b9250620006997fffffffffffffffffffffffffffffffffffffffffffffffffffffffffffffffff8484620006a1565b905092915050565b600082620006b3576001905062000786565b81620006c3576000905062000786565b8160018114620006dc5760028114620006e7576200071d565b600191505062000786565b60ff841115620006fc57620006fb6200083b565b5b8360020a9150848211156200071657620007156200083b565b5b5062000786565b5060208310610133831016604e8410600b8410161715620007575782820a9050838111156200075157620007506200083b565b5b62000786565b620007668484846001620005f5565b9250905081840481111562000780576200077f6200083b565b5b81810290505b9392505050565b60006200079a82620007ee565b9150620007a783620007ee565b9250817fffffffffffffffffffffffffffffffffffffffffffffffffffffffffffffffff0483118215151615620007e357620007e26200083b565b5b828202905092915050565b6000819050919050565b600060ff82169050919050565b600060028204905060018216806200081e57607f821691505b602082108114156200083557620008346200086a565b5b50919050565b7f4e487b7100000000000000000000000000000000000000000000000000000000600052601160045260246000fd5b7f4e487b7100000000000000000000000000000000000000000000000000000000600052602260045260246000fd5b60008160011c9050919050565b7f45524332303a206d696e7420746f20746865207a65726f206164647265737300600082015250565b6130b980620008df6000396000f3fe608060405234801561001057600080fd5b50600436106101735760003560e01c806370a08231116100de578063a457c2d711610097578063b15fe36b11610071578063b15fe36b14610498578063d5391393146104c8578063d547741f146104e6578063dd62ed3e1461050257610173565b8063a457c2d71461041a578063a9059cbb1461044a578063a91c1d3c1461047a57610173565b806370a082311461033257806379cc67901461036257806388d695b21461037e57806391d14854146103ae57806395d89b41146103de578063a217fddf146103fc57610173565b80632f2ff15d116101305780632f2ff15d14610274578063313ce5671461029057806336568abe146102ae57806339509351146102ca57806340c10f19146102fa57806342966c681461031657610173565b806301ffc9a71461017857806306fdde03146101a8578063095ea7b3146101c657806318160ddd146101f657806323b872dd14610214578063248a9ca314610244575b600080fd5b610192600480360381019061018d9190612056565b610532565b60405161019f919061244b565b60405180910390f35b6101b06105ac565b6040516101bd9190612481565b60405180910390f35b6101e060048036038101906101db9190611f40565b61063e565b6040516101ed919061244b565b60405180910390f35b6101fe610661565b60405161020b91906126c3565b60405180910390f35b61022e60048036038101906102299190611ef1565b61066b565b60405161023b919061244b565b60405180910390f35b61025e60048036038101906102599190611ff1565b61069a565b60405161026b9190612466565b60405180910390f35b61028e6004803603810190610289919061201a565b6106ba565b005b6102986106e3565b6040516102a591906126de565b60405180910390f35b6102c860048036038101906102c3919061201a565b6106ec565b005b6102e460048036038101906102df9190611f40565b61076f565b6040516102f1919061244b565b60405180910390f35b610314600480360381019061030f9190611f40565b610819565b005b610330600480360381019061032b919061207f565b61085a565b005b61034c60048036038101906103479190611e8c565b61086e565b60405161035991906126c3565b60405180910390f35b61037c60048036038101906103779190611f40565b6108b6565b005b61039860048036038101906103939190611f7c565b6108d6565b6040516103a5919061244b565b60405180910390f35b6103c860048036038101906103c3919061201a565b610bc4565b6040516103d5919061244b565b60405180910390f35b6103e6610c2f565b6040516103f39190612481565b60405180910390f35b610404610cc1565b6040516104119190612466565b60405180910390f35b610434600480360381019061042f9190611f40565b610cc8565b604051610441919061244b565b60405180910390f35b610464600480360381019061045f9190611f40565b610db2565b604051610471919061244b565b60405180910390f35b610482610dd5565b60405161048f9190612466565b60405180910390f35b6104b260048036038101906104ad9190611e8c565b610df9565b6040516104bf919061244b565b60405180910390f35b6104d0610eeb565b6040516104dd9190612466565b60405180910390f35b61050060048036038101906104fb919061201a565b610f0f565b005b61051c60048036038101906105179190611eb5565b610f38565b60405161052991906126c3565b60405180910390f35b60007f7965db0b000000000000000000000000000000000000000000000000000000007bffffffffffffffffffffffffffffffffffffffffffffffffffffffff1916827bffffffffffffffffffffffffffffffffffffffffffffffffffffffff191614806105a557506105a482610fbf565b5b9050919050565b6060600380546105bb90612a5d565b80601f01602080910402602001604051908101604052809291908181526020018280546105e790612a5d565b80156106345780601f1061060957610100808354040283529160200191610634565b820191906000526020600020905b81548152906001019060200180831161061757829003601f168201915b5050505050905090565b600080610649611029565b9050610656818585611031565b600191505092915050565b6000600254905090565b600080610676611029565b90506106838582856111fc565b61068e858585611288565b60019150509392505050565b600060056000838152602001908152602001600020600101549050919050565b6106c38261069a565b6106d4816106cf611029565b611509565b6106de83836115a6565b505050565b60006012905090565b6106f4611029565b73ffffffffffffffffffffffffffffffffffffffff168173ffffffffffffffffffffffffffffffffffffffff1614610761576040517f08c379a000000000000000000000000000000000000000000000000000000000815260040161075890612683565b60405180910390fd5b61076b8282611687565b5050565b60008061077a611029565b905061080e818585600160008673ffffffffffffffffffffffffffffffffffffffff1673ffffffffffffffffffffffffffffffffffffffff16815260200190815260200160002060008973ffffffffffffffffffffffffffffffffffffffff1673ffffffffffffffffffffffffffffffffffffffff168152602001908152602001600020546108099190612720565b611031565b600191505092915050565b7f9f2df0fed2c77648de5860a4cc508cd0818c85b8b8a1ab4ceeef8d981c8956a661084b81610846611029565b611509565b6108558383611769565b505050565b61086b610865611029565b826118c9565b50565b60008060008373ffffffffffffffffffffffffffffffffffffffff1673ffffffffffffffffffffffffffffffffffffffff168152602001908152602001600020549050919050565b6108c8826108c2611029565b836111fc565b6108d282826118c9565b5050565b60007f0eb740c189390f0545e852790c9a6f68244a8177258d7c99bb56775dfa161dcd61090a81610905611029565b611509565b838390508686905014610952576040517f08c379a000000000000000000000000000000000000000000000000000000000815260040161094990612563565b60405180910390fd5b60c8868690501115610999576040517f08c379a000000000000000000000000000000000000000000000000000000000815260040161099090612523565b60405180910390fd5b60005b86869050811015610bb657600073ffffffffffffffffffffffffffffffffffffffff168787838181106109f8577f4e487b7100000000000000000000000000000000000000000000000000000000600052603260045260246000fd5b9050602002016020810190610a0d9190611e8c565b73ffffffffffffffffffffffffffffffffffffffff161415610a64576040517f08c379a0000000000000000000000000000000000000000000000000000000008152600401610a5b906125e3565b60405180910390fd5b848482818110610a9d577f4e487b7100000000000000000000000000000000000000000000000000000000600052603260045260246000fd5b90506020020135610aad3061086e565b1015610aee576040517f08c379a0000000000000000000000000000000000000000000000000000000008152600401610ae5906125c3565b60405180910390fd5b610ba2878783818110610b2a577f4e487b7100000000000000000000000000000000000000000000000000000000600052603260045260246000fd5b9050602002016020810190610b3f9190611e8c565b610b476106e3565b600a610b5391906127c9565b878785818110610b8c577f4e487b7100000000000000000000000000000000000000000000000000000000600052603260045260246000fd5b90506020020135610b9d91906128e7565b610db2565b508080610bae90612a8f565b91505061099c565b506001915050949350505050565b60006005600084815260200190815260200160002060000160008373ffffffffffffffffffffffffffffffffffffffff1673ffffffffffffffffffffffffffffffffffffffff16815260200190815260200160002060009054906101000a900460ff16905092915050565b606060048054610c3e90612a5d565b80601f0160208091040260200160405190810160405280929190818152602001828054610c6a90612a5d565b8015610cb75780601f10610c8c57610100808354040283529160200191610cb7565b820191906000526020600020905b815481529060010190602001808311610c9a57829003601f168201915b5050505050905090565b6000801b81565b600080610cd3611029565b90506000600160008373ffffffffffffffffffffffffffffffffffffffff1673ffffffffffffffffffffffffffffffffffffffff16815260200190815260200160002060008673ffffffffffffffffffffffffffffffffffffffff1673ffffffffffffffffffffffffffffffffffffffff16815260200190815260200160002054905083811015610d99576040517f08c379a0000000000000000000000000000000000000000000000000000000008152600401610d9090612663565b60405180910390fd5b610da68286868403611031565b60019250505092915050565b600080610dbd611029565b9050610dca818585611288565b600191505092915050565b7f0eb740c189390f0545e852790c9a6f68244a8177258d7c99bb56775dfa161dcd81565b60008060001b610e1081610e0b611029565b611509565b600073ffffffffffffffffffffffffffffffffffffffff168373ffffffffffffffffffffffffffffffffffffffff161415610e80576040517f08c379a0000000000000000000000000000000000000000000000000000000008152600401610e77906124e3565b60405180910390fd5b610eaa7f0eb740c189390f0545e852790c9a6f68244a8177258d7c99bb56775dfa161dcd846115a6565b7fa074b09100be608e36cb1e6343a63953f7987c21bdfbcf4d07ff602161cba65783604051610ed99190612430565b60405180910390a16001915050919050565b7f9f2df0fed2c77648de5860a4cc508cd0818c85b8b8a1ab4ceeef8d981c8956a681565b610f188261069a565b610f2981610f24611029565b611509565b610f338383611687565b505050565b6000600160008473ffffffffffffffffffffffffffffffffffffffff1673ffffffffffffffffffffffffffffffffffffffff16815260200190815260200160002060008373ffffffffffffffffffffffffffffffffffffffff1673ffffffffffffffffffffffffffffffffffffffff16815260200190815260200160002054905092915050565b60007f01ffc9a7000000000000000000000000000000000000000000000000000000007bffffffffffffffffffffffffffffffffffffffffffffffffffffffff1916827bffffffffffffffffffffffffffffffffffffffffffffffffffffffff1916149050919050565b600033905090565b600073ffffffffffffffffffffffffffffffffffffffff168373ffffffffffffffffffffffffffffffffffffffff1614156110a1576040517f08c379a000000000000000000000000000000000000000000000000000000000815260040161109890612643565b60405180910390fd5b600073ffffffffffffffffffffffffffffffffffffffff168273ffffffffffffffffffffffffffffffffffffffff161415611111576040517f08c379a000000000000000000000000000000000000000000000000000000000815260040161110890612543565b60405180910390fd5b80600160008573ffffffffffffffffffffffffffffffffffffffff1673ffffffffffffffffffffffffffffffffffffffff16815260200190815260200160002060008473ffffffffffffffffffffffffffffffffffffffff1673ffffffffffffffffffffffffffffffffffffffff168152602001908152602001600020819055508173ffffffffffffffffffffffffffffffffffffffff168373ffffffffffffffffffffffffffffffffffffffff167f8c5be1e5ebec7d5bd14f71427d1e84f3dd0314c0f7b2291e5b200ac8c7c3b925836040516111ef91906126c3565b60405180910390a3505050565b60006112088484610f38565b90507fffffffffffffffffffffffffffffffffffffffffffffffffffffffffffffffff81146112825781811015611274576040517f08c379a000000000000000000000000000000000000000000000000000000000815260040161126b90612583565b60405180910390fd5b6112818484848403611031565b5b50505050565b600073ffffffffffffffffffffffffffffffffffffffff168373ffffffffffffffffffffffffffffffffffffffff1614156112f8576040517f08c379a00000000000000000000000000000000000000000000000000000000081526004016112ef90612623565b60405180910390fd5b600073ffffffffffffffffffffffffffffffffffffffff168273ffffffffffffffffffffffffffffffffffffffff161415611368576040517f08c379a000000000000000000000000000000000000000000000000000000000815260040161135f906124c3565b60405180910390fd5b611373838383611aa0565b60008060008573ffffffffffffffffffffffffffffffffffffffff1673ffffffffffffffffffffffffffffffffffffffff168152602001908152602001600020549050818110156113f9576040517f08c379a00000000000000000000000000000000000000000000000000000000081526004016113f0906125a3565b60405180910390fd5b8181036000808673ffffffffffffffffffffffffffffffffffffffff1673ffffffffffffffffffffffffffffffffffffffff16815260200190815260200160002081905550816000808573ffffffffffffffffffffffffffffffffffffffff1673ffffffffffffffffffffffffffffffffffffffff168152602001908152602001600020600082825461148c9190612720565b925050819055508273ffffffffffffffffffffffffffffffffffffffff168473ffffffffffffffffffffffffffffffffffffffff167fddf252ad1be2c89b69c2b068fc378daa952ba7f163c4a11628f55a4df523b3ef846040516114f091906126c3565b60405180910390a3611503848484611aa5565b50505050565b6115138282610bc4565b6115a2576115388173ffffffffffffffffffffffffffffffffffffffff166014611aaa565b6115468360001c6020611aaa565b6040516020016115579291906123f6565b6040516020818303038152906040526040517f08c379a00000000000000000000000000000000000000000000000000000000081526004016115999190612481565b60405180910390fd5b5050565b6115b08282610bc4565b6116835760016005600084815260200190815260200160002060000160008373ffffffffffffffffffffffffffffffffffffffff1673ffffffffffffffffffffffffffffffffffffffff16815260200190815260200160002060006101000a81548160ff021916908315150217905550611628611029565b73ffffffffffffffffffffffffffffffffffffffff168173ffffffffffffffffffffffffffffffffffffffff16837f2f8788117e7eff1d82e926ec794901d17c78024a50270940304540a733656f0d60405160405180910390a45b5050565b6116918282610bc4565b156117655760006005600084815260200190815260200160002060000160008373ffffffffffffffffffffffffffffffffffffffff1673ffffffffffffffffffffffffffffffffffffffff16815260200190815260200160002060006101000a81548160ff02191690831515021790555061170a611029565b73ffffffffffffffffffffffffffffffffffffffff168173ffffffffffffffffffffffffffffffffffffffff16837ff6391f5c32d9c69d2a47ea670b442974b53935d1edc7fd64eb21e047a839171b60405160405180910390a45b5050565b600073ffffffffffffffffffffffffffffffffffffffff168273ffffffffffffffffffffffffffffffffffffffff1614156117d9576040517f08c379a00000000000000000000000000000000000000000000000000000000081526004016117d0906126a3565b60405180910390fd5b6117e560008383611aa0565b80600260008282546117f79190612720565b92505081905550806000808473ffffffffffffffffffffffffffffffffffffffff1673ffffffffffffffffffffffffffffffffffffffff168152602001908152602001600020600082825461184c9190612720565b925050819055508173ffffffffffffffffffffffffffffffffffffffff16600073ffffffffffffffffffffffffffffffffffffffff167fddf252ad1be2c89b69c2b068fc378daa952ba7f163c4a11628f55a4df523b3ef836040516118b191906126c3565b60405180910390a36118c560008383611aa5565b5050565b600073ffffffffffffffffffffffffffffffffffffffff168273ffffffffffffffffffffffffffffffffffffffff161415611939576040517f08c379a000000000000000000000000000000000000000000000000000000000815260040161193090612603565b60405180910390fd5b61194582600083611aa0565b60008060008473ffffffffffffffffffffffffffffffffffffffff1673ffffffffffffffffffffffffffffffffffffffff168152602001908152602001600020549050818110156119cb576040517f08c379a00000000000000000000000000000000000000000000000000000000081526004016119c290612503565b60405180910390fd5b8181036000808573ffffffffffffffffffffffffffffffffffffffff1673ffffffffffffffffffffffffffffffffffffffff168152602001908152602001600020819055508160026000828254611a229190612941565b92505081905550600073ffffffffffffffffffffffffffffffffffffffff168373ffffffffffffffffffffffffffffffffffffffff167fddf252ad1be2c89b69c2b068fc378daa952ba7f163c4a11628f55a4df523b3ef84604051611a8791906126c3565b60405180910390a3611a9b83600084611aa5565b505050565b505050565b505050565b606060006002836002611abd91906128e7565b611ac79190612720565b67ffffffffffffffff811115611b06577f4e487b7100000000000000000000000000000000000000000000000000000000600052604160045260246000fd5b6040519080825280601f01601f191660200182016040528015611b385781602001600182028036833780820191505090505b5090507f300000000000000000000000000000000000000000000000000000000000000081600081518110611b96577f4e487b7100000000000000000000000000000000000000000000000000000000600052603260045260246000fd5b60200101907effffffffffffffffffffffffffffffffffffffffffffffffffffffffffffff1916908160001a9053507f780000000000000000000000000000000000000000000000000000000000000081600181518110611c20577f4e487b7100000000000000000000000000000000000000000000000000000000600052603260045260246000fd5b60200101907effffffffffffffffffffffffffffffffffffffffffffffffffffffffffffff1916908160001a90535060006001846002611c6091906128e7565b611c6a9190612720565b90505b6001811115611d56577f3031323334353637383961626364656600000000000000000000000000000000600f861660108110611cd2577f4e487b7100000000000000000000000000000000000000000000000000000000600052603260045260246000fd5b1a60f81b828281518110611d0f577f4e487b7100000000000000000000000000000000000000000000000000000000600052603260045260246000fd5b60200101907effffffffffffffffffffffffffffffffffffffffffffffffffffffffffffff1916908160001a905350600485901c945080611d4f90612a33565b9050611c6d565b5060008414611d9a576040517f08c379a0000000000000000000000000000000000000000000000000000000008152600401611d91906124a3565b60405180910390fd5b8091505092915050565b600081359050611db381613027565b92915050565b60008083601f840112611dcb57600080fd5b8235905067ffffffffffffffff811115611de457600080fd5b602083019150836020820283011115611dfc57600080fd5b9250929050565b60008083601f840112611e1557600080fd5b8235905067ffffffffffffffff811115611e2e57600080fd5b602083019150836020820283011115611e4657600080fd5b9250929050565b600081359050611e5c8161303e565b92915050565b600081359050611e7181613055565b92915050565b600081359050611e868161306c565b92915050565b600060208284031215611e9e57600080fd5b6000611eac84828501611da4565b91505092915050565b60008060408385031215611ec857600080fd5b6000611ed685828601611da4565b9250506020611ee785828601611da4565b9150509250929050565b600080600060608486031215611f0657600080fd5b6000611f1486828701611da4565b9350506020611f2586828701611da4565b9250506040611f3686828701611e77565b9150509250925092565b60008060408385031215611f5357600080fd5b6000611f6185828601611da4565b9250506020611f7285828601611e77565b9150509250929050565b60008060008060408587031215611f9257600080fd5b600085013567ffffffffffffffff811115611fac57600080fd5b611fb887828801611db9565b9450945050602085013567ffffffffffffffff811115611fd757600080fd5b611fe387828801611e03565b925092505092959194509250565b60006020828403121561200357600080fd5b600061201184828501611e4d565b91505092915050565b6000806040838503121561202d57600080fd5b600061203b85828601611e4d565b925050602061204c85828601611da4565b9150509250929050565b60006020828403121561206857600080fd5b600061207684828501611e62565b91505092915050565b60006020828403121561209157600080fd5b600061209f84828501611e77565b91505092915050565b6120b181612975565b82525050565b6120c081612987565b82525050565b6120cf81612993565b82525050565b60006120e0826126f9565b6120ea8185612704565b93506120fa818560208601612a00565b61210381612b36565b840191505092915050565b6000612119826126f9565b6121238185612715565b9350612133818560208601612a00565b80840191505092915050565b600061214c602083612704565b915061215782612b54565b602082019050919050565b600061216f602383612704565b915061217a82612b7d565b604082019050919050565b6000612192601c83612704565b915061219d82612bcc565b602082019050919050565b60006121b5602283612704565b91506121c082612bf5565b604082019050919050565b60006121d8602e83612704565b91506121e382612c44565b604082019050919050565b60006121fb602283612704565b915061220682612c93565b604082019050919050565b600061221e603e83612704565b915061222982612ce2565b604082019050919050565b6000612241601d83612704565b915061224c82612d31565b602082019050919050565b6000612264602683612704565b915061226f82612d5a565b604082019050919050565b6000612287602783612704565b915061229282612da9565b604082019050919050565b60006122aa601c83612704565b91506122b582612df8565b602082019050919050565b60006122cd602183612704565b91506122d882612e21565b604082019050919050565b60006122f0602583612704565b91506122fb82612e70565b604082019050919050565b6000612313602483612704565b915061231e82612ebf565b604082019050919050565b6000612336601783612715565b915061234182612f0e565b601782019050919050565b6000612359602583612704565b915061236482612f37565b604082019050919050565b600061237c601183612715565b915061238782612f86565b601182019050919050565b600061239f602f83612704565b91506123aa82612faf565b604082019050919050565b60006123c2601f83612704565b91506123cd82612ffe565b602082019050919050565b6123e1816129e9565b82525050565b6123f0816129f3565b82525050565b600061240182612329565b915061240d828561210e565b91506124188261236f565b9150612424828461210e565b91508190509392505050565b600060208201905061244560008301846120a8565b92915050565b600060208201905061246060008301846120b7565b92915050565b600060208201905061247b60008301846120c6565b92915050565b6000602082019050818103600083015261249b81846120d5565b905092915050565b600060208201905081810360008301526124bc8161213f565b9050919050565b600060208201905081810360008301526124dc81612162565b9050919050565b600060208201905081810360008301526124fc81612185565b9050919050565b6000602082019050818103600083015261251c816121a8565b9050919050565b6000602082019050818103600083015261253c816121cb565b9050919050565b6000602082019050818103600083015261255c816121ee565b9050919050565b6000602082019050818103600083015261257c81612211565b9050919050565b6000602082019050818103600083015261259c81612234565b9050919050565b600060208201905081810360008301526125bc81612257565b9050919050565b600060208201905081810360008301526125dc8161227a565b9050919050565b600060208201905081810360008301526125fc8161229d565b9050919050565b6000602082019050818103600083015261261c816122c0565b9050919050565b6000602082019050818103600083015261263c816122e3565b9050919050565b6000602082019050818103600083015261265c81612306565b9050919050565b6000602082019050818103600083015261267c8161234c565b9050919050565b6000602082019050818103600083015261269c81612392565b9050919050565b600060208201905081810360008301526126bc816123b5565b9050919050565b60006020820190506126d860008301846123d8565b92915050565b60006020820190506126f360008301846123e7565b92915050565b600081519050919050565b600082825260208201905092915050565b600081905092915050565b600061272b826129e9565b9150612736836129e9565b9250827fffffffffffffffffffffffffffffffffffffffffffffffffffffffffffffffff0382111561276b5761276a612ad8565b5b828201905092915050565b6000808291508390505b60018511156127c05780860481111561279c5761279b612ad8565b5b60018516156127ab5780820291505b80810290506127b985612b47565b9450612780565b94509492505050565b60006127d4826129e9565b91506127df836129f3565b925061280c7fffffffffffffffffffffffffffffffffffffffffffffffffffffffffffffffff8484612814565b905092915050565b60008261282457600190506128e0565b8161283257600090506128e0565b8160018114612848576002811461285257612881565b60019150506128e0565b60ff84111561286457612863612ad8565b5b8360020a91508482111561287b5761287a612ad8565b5b506128e0565b5060208310610133831016604e8410600b84101617156128b65782820a9050838111156128b1576128b0612ad8565b5b6128e0565b6128c38484846001612776565b925090508184048111156128da576128d9612ad8565b5b81810290505b9392505050565b60006128f2826129e9565b91506128fd836129e9565b9250817fffffffffffffffffffffffffffffffffffffffffffffffffffffffffffffffff048311821515161561293657612935612ad8565b5b828202905092915050565b600061294c826129e9565b9150612957836129e9565b92508282101561296a57612969612ad8565b5b828203905092915050565b6000612980826129c9565b9050919050565b60008115159050919050565b6000819050919050565b60007fffffffff0000000000000000000000000000000000000000000000000000000082169050919050565b600073ffffffffffffffffffffffffffffffffffffffff82169050919050565b6000819050919050565b600060ff82169050919050565b60005b83811015612a1e578082015181840152602081019050612a03565b83811115612a2d576000848401525b50505050565b6000612a3e826129e9565b91506000821415612a5257612a51612ad8565b5b600182039050919050565b60006002820490506001821680612a7557607f821691505b60208210811415612a8957612a88612b07565b5b50919050565b6000612a9a826129e9565b91507fffffffffffffffffffffffffffffffffffffffffffffffffffffffffffffffff821415612acd57612acc612ad8565b5b600182019050919050565b7f4e487b7100000000000000000000000000000000000000000000000000000000600052601160045260246000fd5b7f4e487b7100000000000000000000000000000000000000000000000000000000600052602260045260246000fd5b6000601f19601f8301169050919050565b60008160011c9050919050565b7f537472696e67733a20686578206c656e67746820696e73756666696369656e74600082015250565b7f45524332303a207472616e7366657220746f20746865207a65726f206164647260008201527f6573730000000000000000000000000000000000000000000000000000000000602082015250565b7f43616e6e6f742064656c656761746520746f2061646472657373203000000000600082015250565b7f45524332303a206275726e20616d6f756e7420657863656564732062616c616e60008201527f6365000000000000000000000000000000000000000000000000000000000000602082015250565b7f4e756d626572206f6620726563697069656e74732065786365656473206d617860008201527f696d756d20616c6c6f7761626c65000000000000000000000000000000000000602082015250565b7f45524332303a20617070726f766520746f20746865207a65726f20616464726560008201527f7373000000000000000000000000000000000000000000000000000000000000602082015250565b7f4e756d626572206f6620726563697069656e7473206973206e6f74206571756160008201527f6c20746f20616d6f756e747320746f206265207472616e736665727265640000602082015250565b7f45524332303a20696e73756666696369656e7420616c6c6f77616e6365000000600082015250565b7f45524332303a207472616e7366657220616d6f756e742065786365656473206260008201527f616c616e63650000000000000000000000000000000000000000000000000000602082015250565b7f42616c616e6365206e6f7420656e6f75676820746f20636f6e74696e7565207460008201527f72616e7366657200000000000000000000000000000000000000000000000000602082015250565b7f43616e6e6f74207472616e7366657220746f2061646472657373203000000000600082015250565b7f45524332303a206275726e2066726f6d20746865207a65726f2061646472657360008201527f7300000000000000000000000000000000000000000000000000000000000000602082015250565b7f45524332303a207472616e736665722066726f6d20746865207a65726f20616460008201527f6472657373000000000000000000000000000000000000000000000000000000602082015250565b7f45524332303a20617070726f76652066726f6d20746865207a65726f2061646460008201527f7265737300000000000000000000000000000000000000000000000000000000602082015250565b7f416363657373436f6e74726f6c3a206163636f756e7420000000000000000000600082015250565b7f45524332303a2064656372656173656420616c6c6f77616e63652062656c6f7760008201527f207a65726f000000000000000000000000000000000000000000000000000000602082015250565b7f206973206d697373696e6720726f6c6520000000000000000000000000000000600082015250565b7f416363657373436f6e74726f6c3a2063616e206f6e6c792072656e6f756e636560008201527f20726f6c657320666f722073656c660000000000000000000000000000000000602082015250565b7f45524332303a206d696e7420746f20746865207a65726f206164647265737300600082015250565b61303081612975565b811461303b57600080fd5b50565b61304781612993565b811461305257600080fd5b50565b61305e8161299d565b811461306957600080fd5b50565b613075816129e9565b811461308057600080fd5b5056fea264697066735822122067f87488d973f04006ebc6cbd61c338c9d0ed3459ce94cfa6f75ef9794428f4964736f6c63430008040033",
  "linkReferences": {},
  "deployedLinkReferences": {}
}