{
  "_format": "hh-sol-artifact-1",
  "contractName": "Library",
  "sourceName": "contracts/Library.sol",
  "abi": [
    {
      "inputs": [
        {
          "internalType": "string",
          "name": "_name",
          "type": "string"
        }
      ],
      "stateMutability": "nonpayable",
      "type": "constructor"
    },
    {
      "anonymous": false,
      "inputs": [
        {
          "indexed": false,
          "internalType": "uint256",
          "name": "count",
          "type": "uint256"
        },
        {
          "indexed": false,
          "internalType": "address",
          "name": "owner",
          "type": "address"
        },
        {
          "indexed": false,
          "internalType": "string",
          "name": "hash",
          "type": "string"
        },
        {
          "indexed": false,
          "internalType": "string",
          "name": "status",
          "type": "string"
        }
      ],
      "name": "FileCreation",
      "type": "event"
    },
    {
      "anonymous": false,
      "inputs": [
        {
          "indexed": false,
          "internalType": "string",
          "name": "suucessMessage",
          "type": "string"
        }
      ],
      "name": "ReturnedFiles",
      "type": "event"
    },
    {
      "anonymous": false,
      "inputs": [
        {
          "indexed": false,
          "internalType": "address",
          "name": "share_to",
          "type": "address"
        },
        {
          "indexed": false,
          "internalType": "address",
          "name": "shared_by",
          "type": "address"
        },
        {
          "indexed": false,
          "internalType": "string",
          "name": "hash",
          "type": "string"
        }
      ],
      "name": "sharedEvent",
      "type": "event"
    },
    {
      "inputs": [],
      "name": "CountPublic",
      "outputs": [
        {
          "internalType": "uint256",
          "name": "",
          "type": "uint256"
        }
      ],
      "stateMutability": "view",
      "type": "function"
    },
    {
      "inputs": [
        {
          "internalType": "string",
          "name": "_hash",
          "type": "string"
        },
        {
          "internalType": "string",
          "name": "_status",
          "type": "string"
        }
      ],
      "name": "addFile",
      "outputs": [],
      "stateMutability": "nonpayable",
      "type": "function"
    },
    {
      "inputs": [],
      "name": "countPrivate",
      "outputs": [
        {
          "internalType": "uint256",
          "name": "",
          "type": "uint256"
        }
      ],
      "stateMutability": "view",
      "type": "function"
    },
    {
      "inputs": [],
      "name": "getSharedFile",
      "outputs": [
        {
          "components": [
            {
              "internalType": "address",
              "name": "shared_by",
              "type": "address"
            },
            {
              "internalType": "string",
              "name": "shared_hash",
              "type": "string"
            }
          ],
          "internalType": "struct Library.sharedFile[]",
          "name": "",
          "type": "tuple[]"
        }
      ],
      "stateMutability": "view",
      "type": "function"
    },
    {
      "inputs": [],
      "name": "name",
      "outputs": [
        {
          "internalType": "string",
          "name": "",
          "type": "string"
        }
      ],
      "stateMutability": "view",
      "type": "function"
    },
    {
      "inputs": [
        {
          "internalType": "address",
          "name": "",
          "type": "address"
        },
        {
          "internalType": "uint256",
          "name": "",
          "type": "uint256"
        }
      ],
      "name": "privatefiles",
      "outputs": [
        {
          "internalType": "uint256",
          "name": "count",
          "type": "uint256"
        },
        {
          "internalType": "string",
          "name": "ipfsHash",
          "type": "string"
        },
        {
          "internalType": "string",
          "name": "status",
          "type": "string"
        }
      ],
      "stateMutability": "view",
      "type": "function"
    },
    {
      "inputs": [
        {
          "internalType": "uint256",
          "name": "",
          "type": "uint256"
        }
      ],
      "name": "publicfiles",
      "outputs": [
        {
          "internalType": "uint256",
          "name": "count",
          "type": "uint256"
        },
        {
          "internalType": "address",
          "name": "owner",
          "type": "address"
        },
        {
          "internalType": "string",
          "name": "ipfsHash",
          "type": "string"
        },
        {
          "internalType": "string",
          "name": "status",
          "type": "string"
        }
      ],
      "stateMutability": "view",
      "type": "function"
    },
    {
      "inputs": [],
      "name": "retrievePrivateVideos",
      "outputs": [
        {
          "components": [
            {
              "internalType": "uint256",
              "name": "count",
              "type": "uint256"
            },
            {
              "internalType": "string",
              "name": "ipfsHash",
              "type": "string"
            },
            {
              "internalType": "string",
              "name": "status",
              "type": "string"
            }
          ],
          "internalType": "struct Library.Privatefile[]",
          "name": "",
          "type": "tuple[]"
        }
      ],
      "stateMutability": "view",
      "type": "function"
    },
    {
      "inputs": [],
      "name": "retrievePublicFiles",
      "outputs": [
        {
          "components": [
            {
              "internalType": "uint256",
              "name": "count",
              "type": "uint256"
            },
            {
              "internalType": "address",
              "name": "owner",
              "type": "address"
            },
            {
              "internalType": "string",
              "name": "ipfsHash",
              "type": "string"
            },
            {
              "internalType": "string",
              "name": "status",
              "type": "string"
            }
          ],
          "internalType": "struct Library.Publicfile[]",
          "name": "",
          "type": "tuple[]"
        }
      ],
      "stateMutability": "view",
      "type": "function"
    },
    {
      "inputs": [
        {
          "internalType": "address",
          "name": "_share_to",
          "type": "address"
        },
        {
          "internalType": "string",
          "name": "_hashed_file",
          "type": "string"
        }
      ],
      "name": "shareFile",
      "outputs": [],
      "stateMutability": "nonpayable",
      "type": "function"
    },
    {
      "inputs": [
        {
          "internalType": "address",
          "name": "",
          "type": "address"
        },
        {
          "internalType": "uint256",
          "name": "",
          "type": "uint256"
        }
      ],
      "name": "shared_files",
      "outputs": [
        {
          "internalType": "address",
          "name": "shared_by",
          "type": "address"
        },
        {
          "internalType": "string",
          "name": "shared_hash",
          "type": "string"
        }
      ],
      "stateMutability": "view",
      "type": "function"
    }
  ],
  "bytecode": "0x60806040523480156200001157600080fd5b506040516200241a3803806200241a833981810160405281019062000037919062000179565b80600090805190602001906200004f92919062000057565b50506200032e565b828054620000659062000253565b90600052602060002090601f016020900481019282620000895760008555620000d5565b82601f10620000a457805160ff1916838001178555620000d5565b82800160010185558215620000d5579182015b82811115620000d4578251825591602001919060010190620000b7565b5b509050620000e49190620000e8565b5090565b5b8082111562000103576000816000905550600101620000e9565b5090565b60006200011e6200011884620001e7565b620001be565b9050828152602081018484840111156200013757600080fd5b620001448482856200021d565b509392505050565b600082601f8301126200015e57600080fd5b81516200017084826020860162000107565b91505092915050565b6000602082840312156200018c57600080fd5b600082015167ffffffffffffffff811115620001a757600080fd5b620001b5848285016200014c565b91505092915050565b6000620001ca620001dd565b9050620001d8828262000289565b919050565b6000604051905090565b600067ffffffffffffffff821115620002055762000204620002ee565b5b62000210826200031d565b9050602081019050919050565b60005b838110156200023d57808201518184015260208101905062000220565b838111156200024d576000848401525b50505050565b600060028204905060018216806200026c57607f821691505b60208210811415620002835762000282620002bf565b5b50919050565b62000294826200031d565b810181811067ffffffffffffffff82111715620002b657620002b5620002ee565b5b80604052505050565b7f4e487b7100000000000000000000000000000000000000000000000000000000600052602260045260246000fd5b7f4e487b7100000000000000000000000000000000000000000000000000000000600052604160045260246000fd5b6000601f19601f8301169050919050565b6120dc806200033e6000396000f3fe608060405234801561001057600080fd5b50600436106100a95760003560e01c8063a626174511610071578063a626174514610155578063bab2876a14610173578063dd78be3214610191578063df7f7c16146101c3578063dfa36d5b146101e1578063e5082607146101fd576100a9565b806306fdde03146100ae578063248bfc3b146100cc5780632e4010b3146100e85780636c855e501461010657806375cc320514610137575b600080fd5b6100b6610230565b6040516100c39190611b9e565b60405180910390f35b6100e660048036038101906100e19190611605565b6102be565b005b6100f061056f565b6040516100fd9190611c20565b60405180910390f35b610120600480360381019061011b91906115c9565b610575565b60405161012e929190611b08565b60405180910390f35b61013f61065e565b60405161014c9190611b5a565b60405180910390f35b61015d6108f4565b60405161016a9190611b7c565b60405180910390f35b61017b610a78565b6040516101889190611b38565b60405180910390f35b6101ab60048036038101906101a691906115c9565b610c42565b6040516101ba93929190611c8e565b60405180910390f35b6101cb610d99565b6040516101d89190611c20565b60405180910390f35b6101fb60048036038101906101f69190611575565b610d9f565b005b61021760048036038101906102129190611671565b611007565b6040516102279493929190611c3b565b60405180910390f35b6000805461023d90611e8a565b80601f016020809104026020016040519081016040528092919081815260200182805461026990611e8a565b80156102b65780601f1061028b576101008083540402835291602001916102b6565b820191906000526020600020905b81548152906001019060200180831161029957829003601f168201915b505050505081565b6040516020016102cd90611ab5565b60405160208183030381529060405280519060200120816040516020016102f49190611a9e565b604051602081830303815290604052805190602001201415610448576001600081548092919061032390611eed565b9190505550604051806080016040528060015481526020013373ffffffffffffffffffffffffffffffffffffffff168152602001838152602001828152506003600060015481526020019081526020016000206000820151816000015560208201518160010160006101000a81548173ffffffffffffffffffffffffffffffffffffffff021916908373ffffffffffffffffffffffffffffffffffffffff16021790555060408201518160020190805190602001906103e3929190611402565b506060820151816003019080519060200190610400929190611402565b509050507f5ae889095aeb6f74f829910710052244f6602cfc6b68a54dfafa28fcaa514fd460015433848460405161043b9493929190611c3b565b60405180910390a161056b565b6002600081548092919061045b90611eed565b9190505550600460003373ffffffffffffffffffffffffffffffffffffffff1673ffffffffffffffffffffffffffffffffffffffff1681526020019081526020016000206040518060600160405280600254815260200184815260200183815250908060018154018082558091505060019003906000526020600020906003020160009091909190915060008201518160000155602082015181600101908051906020019061050b929190611402565b506040820151816002019080519060200190610528929190611402565b5050507f5ae889095aeb6f74f829910710052244f6602cfc6b68a54dfafa28fcaa514fd46002543384846040516105629493929190611c3b565b60405180910390a15b5050565b60015481565b6005602052816000526040600020818154811061059157600080fd5b9060005260206000209060020201600091509150508060000160009054906101000a900473ffffffffffffffffffffffffffffffffffffffff16908060010180546105db90611e8a565b80601f016020809104026020016040519081016040528092919081815260200182805461060790611e8a565b80156106545780601f1061062957610100808354040283529160200191610654565b820191906000526020600020905b81548152906001019060200180831161063757829003601f168201915b5050505050905082565b6060600060015467ffffffffffffffff8111156106a4577f4e487b7100000000000000000000000000000000000000000000000000000000600052604160045260246000fd5b6040519080825280602002602001820160405280156106dd57816020015b6106ca611488565b8152602001906001900390816106c25790505b50905060005b6001548110156108ec57600060036000838152602001908152602001600020905080604051806080016040529081600082015481526020016001820160009054906101000a900473ffffffffffffffffffffffffffffffffffffffff1673ffffffffffffffffffffffffffffffffffffffff1673ffffffffffffffffffffffffffffffffffffffff16815260200160028201805461078090611e8a565b80601f01602080910402602001604051908101604052809291908181526020018280546107ac90611e8a565b80156107f95780601f106107ce576101008083540402835291602001916107f9565b820191906000526020600020905b8154815290600101906020018083116107dc57829003601f168201915b5050505050815260200160038201805461081290611e8a565b80601f016020809104026020016040519081016040528092919081815260200182805461083e90611e8a565b801561088b5780601f106108605761010080835404028352916020019161088b565b820191906000526020600020905b81548152906001019060200180831161086e57829003601f168201915b5050505050815250508383815181106108cd577f4e487b7100000000000000000000000000000000000000000000000000000000600052603260045260246000fd5b60200260200101819052505080806108e490611eed565b9150506106e3565b508091505090565b6060600560003373ffffffffffffffffffffffffffffffffffffffff1673ffffffffffffffffffffffffffffffffffffffff168152602001908152602001600020805480602002602001604051908101604052809291908181526020016000905b82821015610a6f57838290600052602060002090600202016040518060400160405290816000820160009054906101000a900473ffffffffffffffffffffffffffffffffffffffff1673ffffffffffffffffffffffffffffffffffffffff1673ffffffffffffffffffffffffffffffffffffffff1681526020016001820180546109de90611e8a565b80601f0160208091040260200160405190810160405280929190818152602001828054610a0a90611e8a565b8015610a575780601f10610a2c57610100808354040283529160200191610a57565b820191906000526020600020905b815481529060010190602001808311610a3a57829003601f168201915b50505050508152505081526020019060010190610955565b50505050905090565b6060600460003373ffffffffffffffffffffffffffffffffffffffff1673ffffffffffffffffffffffffffffffffffffffff168152602001908152602001600020805480602002602001604051908101604052809291908181526020016000905b82821015610c39578382906000526020600020906003020160405180606001604052908160008201548152602001600182018054610b1690611e8a565b80601f0160208091040260200160405190810160405280929190818152602001828054610b4290611e8a565b8015610b8f5780601f10610b6457610100808354040283529160200191610b8f565b820191906000526020600020905b815481529060010190602001808311610b7257829003601f168201915b50505050508152602001600282018054610ba890611e8a565b80601f0160208091040260200160405190810160405280929190818152602001828054610bd490611e8a565b8015610c215780601f10610bf657610100808354040283529160200191610c21565b820191906000526020600020905b815481529060010190602001808311610c0457829003601f168201915b50505050508152505081526020019060010190610ad9565b50505050905090565b60046020528160005260406000208181548110610c5e57600080fd5b906000526020600020906003020160009150915050806000015490806001018054610c8890611e8a565b80601f0160208091040260200160405190810160405280929190818152602001828054610cb490611e8a565b8015610d015780601f10610cd657610100808354040283529160200191610d01565b820191906000526020600020905b815481529060010190602001808311610ce457829003601f168201915b505050505090806002018054610d1690611e8a565b80601f0160208091040260200160405190810160405280929190818152602001828054610d4290611e8a565b8015610d8f5780601f10610d6457610100808354040283529160200191610d8f565b820191906000526020600020905b815481529060010190602001808311610d7257829003601f168201915b5050505050905083565b60025481565b8133600073ffffffffffffffffffffffffffffffffffffffff168273ffffffffffffffffffffffffffffffffffffffff161415610e11576040517f08c379a0000000000000000000000000000000000000000000000000000000008152600401610e0890611bc0565b60405180910390fd5b8073ffffffffffffffffffffffffffffffffffffffff168273ffffffffffffffffffffffffffffffffffffffff161415610e80576040517f08c379a0000000000000000000000000000000000000000000000000000000008152600401610e7790611be0565b60405180910390fd5b3383610e8c8282611167565b610ecb576040517f08c379a0000000000000000000000000000000000000000000000000000000008152600401610ec290611c00565b60405180910390fd5b600560008773ffffffffffffffffffffffffffffffffffffffff1673ffffffffffffffffffffffffffffffffffffffff16815260200190815260200160002060405180604001604052803373ffffffffffffffffffffffffffffffffffffffff16815260200187815250908060018154018082558091505060019003906000526020600020906002020160009091909190915060008201518160000160006101000a81548173ffffffffffffffffffffffffffffffffffffffff021916908373ffffffffffffffffffffffffffffffffffffffff1602179055506020820151816001019080519060200190610fc1929190611402565b5050507f5611930653e40f9d93973229f0c75ebf5a608568f13686f8c54568dd6cb1194d863387604051610ff793929190611aca565b60405180910390a1505050505050565b60036020528060005260406000206000915090508060000154908060010160009054906101000a900473ffffffffffffffffffffffffffffffffffffffff169080600201805461105690611e8a565b80601f016020809104026020016040519081016040528092919081815260200182805461108290611e8a565b80156110cf5780601f106110a4576101008083540402835291602001916110cf565b820191906000526020600020905b8154815290600101906020018083116110b257829003601f168201915b5050505050908060030180546110e490611e8a565b80601f016020809104026020016040519081016040528092919081815260200182805461111090611e8a565b801561115d5780601f106111325761010080835404028352916020019161115d565b820191906000526020600020905b81548152906001019060200180831161114057829003601f168201915b5050505050905084565b6000806000600460008673ffffffffffffffffffffffffffffffffffffffff1673ffffffffffffffffffffffffffffffffffffffff168152602001908152602001600020805480602002602001604051908101604052809291908181526020016000905b8282101561132b57838290600052602060002090600302016040518060600160405290816000820154815260200160018201805461120890611e8a565b80601f016020809104026020016040519081016040528092919081815260200182805461123490611e8a565b80156112815780601f1061125657610100808354040283529160200191611281565b820191906000526020600020905b81548152906001019060200180831161126457829003601f168201915b5050505050815260200160028201805461129a90611e8a565b80601f01602080910402602001604051908101604052809291908181526020018280546112c690611e8a565b80156113135780601f106112e857610100808354040283529160200191611313565b820191906000526020600020905b8154815290600101906020018083116112f657829003601f168201915b505050505081525050815260200190600101906111cb565b50505050905060005b81518110156113f6578460405160200161134e9190611a9e565b6040516020818303038152906040528051906020012082828151811061139d577f4e487b7100000000000000000000000000000000000000000000000000000000600052603260045260246000fd5b6020026020010151602001516040516020016113b99190611a9e565b6040516020818303038152906040528051906020012014156113de57600192506113e3565b600092505b80806113ee90611eed565b915050611334565b50819250505092915050565b82805461140e90611e8a565b90600052602060002090601f0160209004810192826114305760008555611477565b82601f1061144957805160ff1916838001178555611477565b82800160010185558215611477579182015b8281111561147657825182559160200191906001019061145b565b5b50905061148491906114c6565b5090565b604051806080016040528060008152602001600073ffffffffffffffffffffffffffffffffffffffff16815260200160608152602001606081525090565b5b808211156114df5760008160009055506001016114c7565b5090565b60006114f66114f184611cf8565b611cd3565b90508281526020810184848401111561150e57600080fd5b611519848285611e48565b509392505050565b60008135905061153081612078565b92915050565b600082601f83011261154757600080fd5b81356115578482602086016114e3565b91505092915050565b60008135905061156f8161208f565b92915050565b6000806040838503121561158857600080fd5b600061159685828601611521565b925050602083013567ffffffffffffffff8111156115b357600080fd5b6115bf85828601611536565b9150509250929050565b600080604083850312156115dc57600080fd5b60006115ea85828601611521565b92505060206115fb85828601611560565b9150509250929050565b6000806040838503121561161857600080fd5b600083013567ffffffffffffffff81111561163257600080fd5b61163e85828601611536565b925050602083013567ffffffffffffffff81111561165b57600080fd5b61166785828601611536565b9150509250929050565b60006020828403121561168357600080fd5b600061169184828501611560565b91505092915050565b60006116a68383611982565b905092915050565b60006116ba83836119d9565b905092915050565b60006116ce8383611a43565b905092915050565b6116df81611e0c565b82525050565b6116ee81611e0c565b82525050565b60006116ff82611d59565b6117098185611dac565b93508360208202850161171b85611d29565b8060005b858110156117575784840389528151611738858261169a565b945061174383611d85565b925060208a0199505060018101905061171f565b50829750879550505050505092915050565b600061177482611d64565b61177e8185611dbd565b93508360208202850161179085611d39565b8060005b858110156117cc57848403895281516117ad85826116ae565b94506117b883611d92565b925060208a01995050600181019050611794565b50829750879550505050505092915050565b60006117e982611d6f565b6117f38185611dce565b93508360208202850161180585611d49565b8060005b85811015611841578484038952815161182285826116c2565b945061182d83611d9f565b925060208a01995050600181019050611809565b50829750879550505050505092915050565b600061185e82611d7a565b6118688185611ddf565b9350611878818560208601611e57565b61188181611fc3565b840191505092915050565b600061189782611d7a565b6118a18185611df0565b93506118b1818560208601611e57565b6118ba81611fc3565b840191505092915050565b60006118d082611d7a565b6118da8185611e01565b93506118ea818560208601611e57565b80840191505092915050565b6000611903601a83611df0565b915061190e82611fd4565b602082019050919050565b6000611926600683611e01565b915061193182611ffd565b600682019050919050565b6000611949601783611df0565b915061195482612026565b602082019050919050565b600061196c601883611df0565b91506119778261204f565b602082019050919050565b600060608301600083015161199a6000860182611a80565b50602083015184820360208601526119b28282611853565b915050604083015184820360408601526119cc8282611853565b9150508091505092915050565b60006080830160008301516119f16000860182611a80565b506020830151611a0460208601826116d6565b5060408301518482036040860152611a1c8282611853565b91505060608301518482036060860152611a368282611853565b9150508091505092915050565b6000604083016000830151611a5b60008601826116d6565b5060208301518482036020860152611a738282611853565b9150508091505092915050565b611a8981611e3e565b82525050565b611a9881611e3e565b82525050565b6000611aaa82846118c5565b915081905092915050565b6000611ac082611919565b9150819050919050565b6000606082019050611adf60008301866116e5565b611aec60208301856116e5565b8181036040830152611afe818461188c565b9050949350505050565b6000604082019050611b1d60008301856116e5565b8181036020830152611b2f818461188c565b90509392505050565b60006020820190508181036000830152611b5281846116f4565b905092915050565b60006020820190508181036000830152611b748184611769565b905092915050565b60006020820190508181036000830152611b9681846117de565b905092915050565b60006020820190508181036000830152611bb8818461188c565b905092915050565b60006020820190508181036000830152611bd9816118f6565b9050919050565b60006020820190508181036000830152611bf98161193c565b9050919050565b60006020820190508181036000830152611c198161195f565b9050919050565b6000602082019050611c356000830184611a8f565b92915050565b6000608082019050611c506000830187611a8f565b611c5d60208301866116e5565b8181036040830152611c6f818561188c565b90508181036060830152611c83818461188c565b905095945050505050565b6000606082019050611ca36000830186611a8f565b8181036020830152611cb5818561188c565b90508181036040830152611cc9818461188c565b9050949350505050565b6000611cdd611cee565b9050611ce98282611ebc565b919050565b6000604051905090565b600067ffffffffffffffff821115611d1357611d12611f94565b5b611d1c82611fc3565b9050602081019050919050565b6000819050602082019050919050565b6000819050602082019050919050565b6000819050602082019050919050565b600081519050919050565b600081519050919050565b600081519050919050565b600081519050919050565b6000602082019050919050565b6000602082019050919050565b6000602082019050919050565b600082825260208201905092915050565b600082825260208201905092915050565b600082825260208201905092915050565b600082825260208201905092915050565b600082825260208201905092915050565b600081905092915050565b6000611e1782611e1e565b9050919050565b600073ffffffffffffffffffffffffffffffffffffffff82169050919050565b6000819050919050565b82818337600083830152505050565b60005b83811015611e75578082015181840152602081019050611e5a565b83811115611e84576000848401525b50505050565b60006002820490506001821680611ea257607f821691505b60208210811415611eb657611eb5611f65565b5b50919050565b611ec582611fc3565b810181811067ffffffffffffffff82111715611ee457611ee3611f94565b5b80604052505050565b6000611ef882611e3e565b91507fffffffffffffffffffffffffffffffffffffffffffffffffffffffffffffffff821415611f2b57611f2a611f36565b5b600182019050919050565b7f4e487b7100000000000000000000000000000000000000000000000000000000600052601160045260246000fd5b7f4e487b7100000000000000000000000000000000000000000000000000000000600052602260045260246000fd5b7f4e487b7100000000000000000000000000000000000000000000000000000000600052604160045260246000fd5b6000601f19601f8301169050919050565b7f41637475616c2061646472657373206973207265717569726564000000000000600082015250565b7f7075626c69630000000000000000000000000000000000000000000000000000600082015250565b7f63616e277420736861726520796f20796f757273656c66000000000000000000600082015250565b7f507269766174652066696c65206e6f742070726573656e740000000000000000600082015250565b61208181611e0c565b811461208c57600080fd5b50565b61209881611e3e565b81146120a357600080fd5b5056fea26469706673582212202a86dda6e39c2467a6711f336e23848a50e8b12841234f881035ff764c7e401c64736f6c63430008040033",
  "linkReferences": {},
  "deployedLinkReferences": {}
}